:020000040800F2
:10000000000002206D060008690600086706000867
:100010006706000867060008670600080000000081
:100020000000000000000000000000006906000859
:10003000690600080000000069060008690600085B
:1000400067060008670600086706000867060008DC
:1000500067060008670600086706000867060008CC
:1000600067060008670600086706000867060008BC
:1000700067060008670600086706000867060008AC
:10008000670600086706000867060008670600089C
:10009000670600086706000867060008670600088C
:1000A000670600086706000867060008670600087C
:1000B00067060008290200086706000867060008AE
:1000C000670600086706000867060008670600085C
:1000D000670600086706000867060008670600084C
:1000E000670600086706000867060008670600083C
:1000F000670600086706000867060008670600082C
:10010000670600086706000867060008670600081B
:10011000670600086706000867060008670600080B
:1001200067060008670600086706000867060008FB
:1001300067060008670600086706000867060008EB
:1001400067060008670600086706000867060008DB
:1001500067060008670600086706000867060008CB
:1001600067060008670600086706000867060008BB
:1001700067060008670600086706000867060008AB
:10018000670600086706000867060008670600089B
:10019000670600086706000867060008670600088B
:1001A00067060008670600086706000808B51B48D0
:1001B00000F0BAF940F2026000F075F840F6010074
:1001C00000F071F84FF4005300220121144800F0B0
:1001D0004AF840F2014000F073F8002319461A462D
:1001E000104800F024FA0F4800F02FFA0D4842F2B0
:1001F0007F5100F034FA40F6C3110A4800F031FA9A
:10020000084800F01DFA0748012100F0FFF90548F1
:1002100000F020FA1D2000F079FAFEE7C007000880
:10022000000802400004004008B50848012100F021
:10023000F1F950B10548012100F0F6F9BDE8084098
:1002400003484FF4005100F005B808BD0004004019
:1002500000080240436901EA030221EA030141EA7E
:100260000241816170472DE9F0410568C4680026AC
:100270004FF0030E43FA06F7FF070DD577000EFA8D
:1002800007FC01FA07F825EA0C0524EA0C0402FA37
:1002900007F748EA05053C430136102EEAD1056010
:1002A000C460BDE8F081430903F1804303F50E33D8
:1002B00000F01F001968012282400A431A6070474B
:1002C000430903F1804303F50E3300F01F00196862
:1002D0000122824011431960196821EA02021A6062
:1002E0007047000006282BD8DFE800F0041E240A1F
:1002F00010161A00134BD3F80008C0F34060704783
:10030000104BD3F80008C0F3404070470D4BD3F8B2
:100310000008C0F3400070470A4BD3F87008F8E7B4
:10032000084BD3F87408F4E7064BD3F80008C0F381
:1003300040707047034BD3F80008C0F3C0607047AB
:10034000002070470030024008B502461046FFF713
:10035000C9FF0028FAD008BD06280CD8DFE800F055
:1003600004282E0C12182000174AD2F8003843F047
:100370008073C2F800387047134AD2F8003843F44B
:100380008033F6E7104AD2F8003843F00103F0E773
:100390000D4AD2F8703843F00103C2F87038704744
:1003A000094AD2F8743843F00103C2F87438704730
:1003B000054AD2F8003843F08053DAE7024AD2F80F
:1003C000003843F08063D4E70030024006280CD8A0
:1003D000DFE800F004282E0C12182000174AD2F88B
:1003E000003823F08073C2F800387047134AD2F8FF
:1003F000003823F48033F6E7104AD2F8003823F0AF
:100400000103F0E70D4AD2F8703823F00103C2F877
:1004100070387047094AD2F8743823F00103C2F8E3
:1004200074387047054AD2F8003823F08053DAE771
:10043000024AD2F8003823F08063D4E7003002404B
:10044000044AD2F8083823F003030343C2F80838FB
:10045000704700BF00300240044AD2F8083823F445
:10046000604343EA4033C2F8083870470030024026
:10047000044AD2F8083823F4E05343EA8023C2F850
:100480000838704700300240044AD2F8083823F098
:10049000F00343EA0013C2F8083870470030024006
:1004A00010B547F6C07404EA811400F03F001B0643
:1004B00003F0706304431C43029B5208022B02F1B9
:1004C000FF324FEA024238BF022302F440321B07D8
:1004D00003F0E04314431C43014BC3F8044810BD30
:1004E0000030024010B5029C022C38BF02242407C1
:1004F0001B0603F0706304F0E04452081C4300F054
:100500003F0047F6C073013A03EA81130443120423
:100510001C4302F44032034B144344F48004C3F8F8
:10052000044810BD0030024037B504460420FFF7F0
:1005300013FFFFF709FF0020FFF782FFE379012B8C
:1005400004D10320FFF708FFFFF7FEFE40F61C0072
:10055000FFF7A9FEE07B00F019F9207BFFF794FF7D
:10056000607BFFF785FFA07BFFF776FF0020FFF79A
:100570002DFFE379A579227961882078012B6379B1
:1005800000952FD1FFF7AEFF0020FFF7E5FEFFF744
:10059000DBFEA3685A0528D500F0D0F8A3689B05B8
:1005A00026D500F0DFF8A06800F0BCF80220FFF7C5
:1005B00047FF124AD2F80838C3F38103022BF9D15E
:1005C0000F4B22691A600F4B62691A600E4BA269C9
:1005D0001A60E379012B0ED1042003B0BDE830404E
:1005E000FFF7F4BEFFF75CFFCEE700F0B1F8D5E708
:1005F00000F0C2F8D7E703B030BD00BF00300240C2
:10060000080000200400002000000020C3680B4305
:10061000C36070470369C0681840084003D0802950
:100620008CBF002001207047C9430161704710B59D
:1006300004681A4324F45C740A432243026010BD28
:10064000036823F0800303607047036823F0080306
:1006500003607047036843F00103036070478162E1
:100660007047C1627047FEE77047000038B51D4A09
:100670001D4B1E498B4220D31D4A0021934221D39A
:100680004FF0E0231B4CD3F8142D1B4D42F40072A5
:10069000C3F8142DD3F8882D42F47002C3F8882DC6
:1006A000AC4212D3154C164DAC4212D3FFF77EFD6F
:1006B000144C154DAC4210D338BD52F8040B43F81E
:1006C000040BD7E743F8041BD8E754F8043B9847DA
:1006D000E6E754F8043B9847E6E754F8043B9847AC
:1006E000E8E700BF14080008000000200C0000200C
:1006F0000C00002014080008140800081408000862
:10070000140800081408000814080008044B4209E3
:1007100003EB820300F01F00012282401A60704741
:1007200000E100E0044AD2F8003C23F00F03034349
:10073000C2F8003C704700BF00300240034AD2F8C4
:10074000003C43F48063C2F8003C70470030024034
:10075000034AD2F8003C23F48063C2F8003C70479F
:1007600000300240034AD2F8003C43F40073C2F860
:10077000003C704700300240034AD2F8003C23F4AA
:100780000073C2F8003C704700300240044A13680E
:10079000800323F4404380B218431060704700BFC9
:1007A000007000401900500104070001020600001B
:1007B0000004000300BD010580DE800200BD0105CC
:1007C0001900C00002040001030600000004000339
:1007D00000D8B805006CDC0200D8B805190050013B
:1007E000020700010506000000050403007A030A61
:1007F00080DE800200BD01051900680102080001C9
:1008000005060000000504030095BA0A40A5AE02E3
:04081000804A5D05B8
:0C0814000024F4000024F4000024F40090
:040000050800066D7C
:00000001FF
